{
  "_format": "hh-sol-artifact-1",
  "contractName": "GPTMembership",
  "sourceName": "contracts/GPTMembership.sol",
  "abi": [
    {
      "inputs": [
        {
          "internalType": "string",
          "name": "_name",
          "type": "string"
        },
        {
          "internalType": "string",
          "name": "_symbol",
          "type": "string"
        }
      ],
      "stateMutability": "nonpayable",
      "type": "constructor"
    },
    {
      "anonymous": false,
      "inputs": [
        {
          "indexed": true,
          "internalType": "address",
          "name": "owner",
          "type": "address"
        },
        {
          "indexed": true,
          "internalType": "address",
          "name": "approved",
          "type": "address"
        },
        {
          "indexed": true,
          "internalType": "uint256",
          "name": "tokenId",
          "type": "uint256"
        }
      ],
      "name": "Approval",
      "type": "event"
    },
    {
      "anonymous": false,
      "inputs": [
        {
          "indexed": true,
          "internalType": "address",
          "name": "owner",
          "type": "address"
        },
        {
          "indexed": true,
          "internalType": "address",
          "name": "operator",
          "type": "address"
        },
        {
          "indexed": false,
          "internalType": "bool",
          "name": "approved",
          "type": "bool"
        }
      ],
      "name": "ApprovalForAll",
      "type": "event"
    },
    {
      "anonymous": false,
      "inputs": [
        {
          "indexed": true,
          "internalType": "address",
          "name": "from",
          "type": "address"
        },
        {
          "indexed": true,
          "internalType": "address",
          "name": "to",
          "type": "address"
        },
        {
          "indexed": true,
          "internalType": "uint256",
          "name": "tokenId",
          "type": "uint256"
        }
      ],
      "name": "Transfer",
      "type": "event"
    },
    {
      "inputs": [],
      "name": "MY_CONTRACT",
      "outputs": [
        {
          "internalType": "string",
          "name": "",
          "type": "string"
        }
      ],
      "stateMutability": "view",
      "type": "function"
    },
    {
      "inputs": [
        {
          "internalType": "address",
          "name": "to",
          "type": "address"
        },
        {
          "internalType": "uint256",
          "name": "tokenId",
          "type": "uint256"
        }
      ],
      "name": "approve",
      "outputs": [],
      "stateMutability": "nonpayable",
      "type": "function"
    },
    {
      "inputs": [
        {
          "internalType": "address",
          "name": "owner",
          "type": "address"
        }
      ],
      "name": "balanceOf",
      "outputs": [
        {
          "internalType": "uint256",
          "name": "",
          "type": "uint256"
        }
      ],
      "stateMutability": "view",
      "type": "function"
    },
    {
      "inputs": [
        {
          "internalType": "uint256",
          "name": "tokenId",
          "type": "uint256"
        }
      ],
      "name": "getApproved",
      "outputs": [
        {
          "internalType": "address",
          "name": "",
          "type": "address"
        }
      ],
      "stateMutability": "view",
      "type": "function"
    },
    {
      "inputs": [
        {
          "internalType": "uint256",
          "name": "_membershipId",
          "type": "uint256"
        }
      ],
      "name": "getMemberships",
      "outputs": [
        {
          "components": [
            {
              "internalType": "uint256",
              "name": "id",
              "type": "uint256"
            },
            {
              "internalType": "string",
              "name": "name",
              "type": "string"
            },
            {
              "internalType": "uint256",
              "name": "cost",
              "type": "uint256"
            },
            {
              "internalType": "string",
              "name": "date",
              "type": "string"
            }
          ],
          "internalType": "struct GPTMembership.Membership",
          "name": "",
          "type": "tuple"
        }
      ],
      "stateMutability": "view",
      "type": "function"
    },
    {
      "inputs": [
        {
          "internalType": "uint256",
          "name": "_membershipId",
          "type": "uint256"
        }
      ],
      "name": "getMembershipsTaken",
      "outputs": [
        {
          "internalType": "uint256[]",
          "name": "",
          "type": "uint256[]"
        }
      ],
      "stateMutability": "view",
      "type": "function"
    },
    {
      "inputs": [
        {
          "internalType": "address",
          "name": "_address",
          "type": "address"
        }
      ],
      "name": "getUsermembership",
      "outputs": [
        {
          "components": [
            {
              "internalType": "uint256",
              "name": "id",
              "type": "uint256"
            },
            {
              "internalType": "uint256",
              "name": "membershipId",
              "type": "uint256"
            },
            {
              "internalType": "address",
              "name": "addressUser",
              "type": "address"
            },
            {
              "internalType": "uint256",
              "name": "cost",
              "type": "uint256"
            },
            {
              "internalType": "string",
              "name": "expireDate",
              "type": "string"
            }
          ],
          "internalType": "struct GPTMembership.UserMembership",
          "name": "",
          "type": "tuple"
        }
      ],
      "stateMutability": "view",
      "type": "function"
    },
    {
      "inputs": [
        {
          "internalType": "uint256",
          "name": "",
          "type": "uint256"
        },
        {
          "internalType": "address",
          "name": "",
          "type": "address"
        }
      ],
      "name": "hasBought",
      "outputs": [
        {
          "internalType": "bool",
          "name": "",
          "type": "bool"
        }
      ],
      "stateMutability": "view",
      "type": "function"
    },
    {
      "inputs": [
        {
          "internalType": "address",
          "name": "owner",
          "type": "address"
        },
        {
          "internalType": "address",
          "name": "operator",
          "type": "address"
        }
      ],
      "name": "isApprovedForAll",
      "outputs": [
        {
          "internalType": "bool",
          "name": "",
          "type": "bool"
        }
      ],
      "stateMutability": "view",
      "type": "function"
    },
    {
      "inputs": [
        {
          "internalType": "string",
          "name": "_name",
          "type": "string"
        },
        {
          "internalType": "uint256",
          "name": "_cost",
          "type": "uint256"
        },
        {
          "internalType": "string",
          "name": "_date",
          "type": "string"
        }
      ],
      "name": "list",
      "outputs": [],
      "stateMutability": "nonpayable",
      "type": "function"
    },
    {
      "inputs": [
        {
          "internalType": "uint256",
          "name": "",
          "type": "uint256"
        },
        {
          "internalType": "uint256",
          "name": "",
          "type": "uint256"
        }
      ],
      "name": "membershipTaken",
      "outputs": [
        {
          "internalType": "address",
          "name": "",
          "type": "address"
        }
      ],
      "stateMutability": "view",
      "type": "function"
    },
    {
      "inputs": [],
      "name": "membershipTypes",
      "outputs": [
        {
          "internalType": "uint256",
          "name": "",
          "type": "uint256"
        }
      ],
      "stateMutability": "view",
      "type": "function"
    },
    {
      "inputs": [
        {
          "internalType": "uint256",
          "name": "",
          "type": "uint256"
        },
        {
          "internalType": "uint256",
          "name": "",
          "type": "uint256"
        }
      ],
      "name": "membershipsTaken",
      "outputs": [
        {
          "internalType": "uint256",
          "name": "",
          "type": "uint256"
        }
      ],
      "stateMutability": "view",
      "type": "function"
    },
    {
      "inputs": [
        {
          "internalType": "uint256",
          "name": "_membershipId",
          "type": "uint256"
        },
        {
          "internalType": "address",
          "name": "_user",
          "type": "address"
        },
        {
          "internalType": "string",
          "name": "_expiredDate",
          "type": "string"
        }
      ],
      "name": "mint",
      "outputs": [],
      "stateMutability": "payable",
      "type": "function"
    },
    {
      "inputs": [],
      "name": "name",
      "outputs": [
        {
          "internalType": "string",
          "name": "",
          "type": "string"
        }
      ],
      "stateMutability": "view",
      "type": "function"
    },
    {
      "inputs": [],
      "name": "owner",
      "outputs": [
        {
          "internalType": "address",
          "name": "",
          "type": "address"
        }
      ],
      "stateMutability": "view",
      "type": "function"
    },
    {
      "inputs": [
        {
          "internalType": "uint256",
          "name": "tokenId",
          "type": "uint256"
        }
      ],
      "name": "ownerOf",
      "outputs": [
        {
          "internalType": "address",
          "name": "",
          "type": "address"
        }
      ],
      "stateMutability": "view",
      "type": "function"
    },
    {
      "inputs": [
        {
          "internalType": "address",
          "name": "from",
          "type": "address"
        },
        {
          "internalType": "address",
          "name": "to",
          "type": "address"
        },
        {
          "internalType": "uint256",
          "name": "tokenId",
          "type": "uint256"
        }
      ],
      "name": "safeTransferFrom",
      "outputs": [],
      "stateMutability": "nonpayable",
      "type": "function"
    },
    {
      "inputs": [
        {
          "internalType": "address",
          "name": "from",
          "type": "address"
        },
        {
          "internalType": "address",
          "name": "to",
          "type": "address"
        },
        {
          "internalType": "uint256",
          "name": "tokenId",
          "type": "uint256"
        },
        {
          "internalType": "bytes",
          "name": "data",
          "type": "bytes"
        }
      ],
      "name": "safeTransferFrom",
      "outputs": [],
      "stateMutability": "nonpayable",
      "type": "function"
    },
    {
      "inputs": [
        {
          "internalType": "address",
          "name": "operator",
          "type": "address"
        },
        {
          "internalType": "bool",
          "name": "approved",
          "type": "bool"
        }
      ],
      "name": "setApprovalForAll",
      "outputs": [],
      "stateMutability": "nonpayable",
      "type": "function"
    },
    {
      "inputs": [
        {
          "internalType": "bytes4",
          "name": "interfaceId",
          "type": "bytes4"
        }
      ],
      "name": "supportsInterface",
      "outputs": [
        {
          "internalType": "bool",
          "name": "",
          "type": "bool"
        }
      ],
      "stateMutability": "view",
      "type": "function"
    },
    {
      "inputs": [],
      "name": "symbol",
      "outputs": [
        {
          "internalType": "string",
          "name": "",
          "type": "string"
        }
      ],
      "stateMutability": "view",
      "type": "function"
    },
    {
      "inputs": [
        {
          "internalType": "uint256",
          "name": "tokenId",
          "type": "uint256"
        }
      ],
      "name": "tokenURI",
      "outputs": [
        {
          "internalType": "string",
          "name": "",
          "type": "string"
        }
      ],
      "stateMutability": "view",
      "type": "function"
    },
    {
      "inputs": [],
      "name": "totalMemberships",
      "outputs": [
        {
          "internalType": "uint256",
          "name": "",
          "type": "uint256"
        }
      ],
      "stateMutability": "view",
      "type": "function"
    },
    {
      "inputs": [
        {
          "internalType": "address",
          "name": "from",
          "type": "address"
        },
        {
          "internalType": "address",
          "name": "to",
          "type": "address"
        },
        {
          "internalType": "uint256",
          "name": "tokenId",
          "type": "uint256"
        }
      ],
      "name": "transferFrom",
      "outputs": [],
      "stateMutability": "nonpayable",
      "type": "function"
    },
    {
      "inputs": [],
      "name": "withdraw",
      "outputs": [],
      "stateMutability": "nonpayable",
      "type": "function"
    }
  ],
  "bytecode": "0x60806040526040518060400160405280600781526020017f4552525f34303400000000000000000000000000000000000000000000000000815250600990816200004a919062000369565b503480156200005857600080fd5b50604051620043243803806200432483398181016040528101906200007e9190620005b4565b8181816000908162000091919062000369565b508060019081620000a3919062000369565b50505033600660006101000a81548173ffffffffffffffffffffffffffffffffffffffff021916908373ffffffffffffffffffffffffffffffffffffffff160217905550505062000639565b600081519050919050565b7f4e487b7100000000000000000000000000000000000000000000000000000000600052604160045260246000fd5b7f4e487b7100000000000000000000000000000000000000000000000000000000600052602260045260246000fd5b600060028204905060018216806200017157607f821691505b60208210810362000187576200018662000129565b5b50919050565b60008190508160005260206000209050919050565b60006020601f8301049050919050565b600082821b905092915050565b600060088302620001f17fffffffffffffffffffffffffffffffffffffffffffffffffffffffffffffffff82620001b2565b620001fd8683620001b2565b95508019841693508086168417925050509392505050565b6000819050919050565b6000819050919050565b60006200024a620002446200023e8462000215565b6200021f565b62000215565b9050919050565b6000819050919050565b620002668362000229565b6200027e620002758262000251565b848454620001bf565b825550505050565b600090565b6200029562000286565b620002a28184846200025b565b505050565b5b81811015620002ca57620002be6000826200028b565b600181019050620002a8565b5050565b601f8211156200031957620002e3816200018d565b620002ee84620001a2565b81016020851015620002fe578190505b620003166200030d85620001a2565b830182620002a7565b50505b505050565b600082821c905092915050565b60006200033e600019846008026200031e565b1980831691505092915050565b60006200035983836200032b565b9150826002028217905092915050565b6200037482620000ef565b67ffffffffffffffff81111562000390576200038f620000fa565b5b6200039c825462000158565b620003a9828285620002ce565b600060209050601f831160018114620003e15760008415620003cc578287015190505b620003d885826200034b565b86555062000448565b601f198416620003f1866200018d565b60005b828110156200041b57848901518255600182019150602085019450602081019050620003f4565b868310156200043b578489015162000437601f8916826200032b565b8355505b6001600288020188555050505b505050505050565b6000604051905090565b600080fd5b600080fd5b600080fd5b600080fd5b6000601f19601f8301169050919050565b6200048a826200046e565b810181811067ffffffffffffffff82111715620004ac57620004ab620000fa565b5b80604052505050565b6000620004c162000450565b9050620004cf82826200047f565b919050565b600067ffffffffffffffff821115620004f257620004f1620000fa565b5b620004fd826200046e565b9050602081019050919050565b60005b838110156200052a5780820151818401526020810190506200050d565b60008484015250505050565b60006200054d6200054784620004d4565b620004b5565b9050828152602081018484840111156200056c576200056b62000469565b5b620005798482856200050a565b509392505050565b600082601f83011262000599576200059862000464565b5b8151620005ab84826020860162000536565b91505092915050565b60008060408385031215620005ce57620005cd6200045a565b5b600083015167ffffffffffffffff811115620005ef57620005ee6200045f565b5b620005fd8582860162000581565b925050602083015167ffffffffffffffff8111156200062157620006206200045f565b5b6200062f8582860162000581565b9150509250929050565b613cdb80620006496000396000f3fe6080604052600436106101815760003560e01c80639485cfed116100d1578063bcd57d041161008a578063d121968411610064578063d1219684146105cc578063e67e402c14610609578063e985e9c514610625578063f9efde301461066257610181565b8063bcd57d0414610529578063c87b56dd14610552578063cdc461ad1461058f57610181565b80639485cfed1461041957806395d89b41146104445780639bb11c421461046f5780639cb04aef1461049a578063a22cb465146104d7578063b88d4fde1461050057610181565b806342842e0e1161013e5780636352211e116101185780636352211e146103375780636441473d1461037457806370a08231146103b15780638da5cb5b146103ee57610181565b806342842e0e14610294578063556697da146102bd5780635ba3c9ee146102fa57610181565b806301ffc9a71461018657806306fdde03146101c3578063081812fc146101ee578063095ea7b31461022b57806323b872dd146102545780633ccfd60b1461027d575b600080fd5b34801561019257600080fd5b506101ad60048036038101906101a89190612608565b61068d565b6040516101ba9190612650565b60405180910390f35b3480156101cf57600080fd5b506101d861076f565b6040516101e591906126fb565b60405180910390f35b3480156101fa57600080fd5b5061021560048036038101906102109190612753565b610801565b60405161022291906127c1565b60405180910390f35b34801561023757600080fd5b50610252600480360381019061024d9190612808565b610847565b005b34801561026057600080fd5b5061027b60048036038101906102769190612848565b61095e565b005b34801561028957600080fd5b506102926109be565b005b3480156102a057600080fd5b506102bb60048036038101906102b69190612848565b610b1f565b005b3480156102c957600080fd5b506102e460048036038101906102df9190612753565b610b3f565b6040516102f1919061295e565b60405180910390f35b34801561030657600080fd5b50610321600480360381019061031c9190612980565b610ca4565b60405161032e9190612a32565b60405180910390f35b34801561034357600080fd5b5061035e60048036038101906103599190612753565b610e03565b60405161036b91906127c1565b60405180910390f35b34801561038057600080fd5b5061039b60048036038101906103969190612a54565b610e89565b6040516103a89190612aa3565b60405180910390f35b3480156103bd57600080fd5b506103d860048036038101906103d39190612980565b610eba565b6040516103e59190612aa3565b60405180910390f35b3480156103fa57600080fd5b50610403610f71565b60405161041091906127c1565b60405180910390f35b34801561042557600080fd5b5061042e610f97565b60405161043b9190612aa3565b60405180910390f35b34801561045057600080fd5b50610459610f9d565b60405161046691906126fb565b60405180910390f35b34801561047b57600080fd5b5061048461102f565b6040516104919190612aa3565b60405180910390f35b3480156104a657600080fd5b506104c160048036038101906104bc9190612abe565b611035565b6040516104ce9190612650565b60405180910390f35b3480156104e357600080fd5b506104fe60048036038101906104f99190612b2a565b611064565b005b34801561050c57600080fd5b5061052760048036038101906105229190612c9f565b61107a565b005b34801561053557600080fd5b50610550600480360381019061054b9190612dc3565b6110dc565b005b34801561055e57600080fd5b5061057960048036038101906105749190612753565b611204565b60405161058691906126fb565b60405180910390f35b34801561059b57600080fd5b506105b660048036038101906105b19190612753565b61126c565b6040516105c39190612efd565b60405180910390f35b3480156105d857600080fd5b506105f360048036038101906105ee9190612a54565b6112d7565b60405161060091906127c1565b60405180910390f35b610623600480360381019061061e9190612f1f565b611319565b005b34801561063157600080fd5b5061064c60048036038101906106479190612f8e565b61163f565b6040516106599190612650565b60405180910390f35b34801561066e57600080fd5b506106776116d3565b60405161068491906126fb565b60405180910390f35b60007f80ac58cd000000000000000000000000000000000000000000000000000000007bffffffffffffffffffffffffffffffffffffffffffffffffffffffff1916827bffffffffffffffffffffffffffffffffffffffffffffffffffffffff1916148061075857507f5b5e139f000000000000000000000000000000000000000000000000000000007bffffffffffffffffffffffffffffffffffffffffffffffffffffffff1916827bffffffffffffffffffffffffffffffffffffffffffffffffffffffff1916145b80610768575061076782611761565b5b9050919050565b60606000805461077e90612ffd565b80601f01602080910402602001604051908101604052809291908181526020018280546107aa90612ffd565b80156107f75780601f106107cc576101008083540402835291602001916107f7565b820191906000526020600020905b8154815290600101906020018083116107da57829003601f168201915b5050505050905090565b600061080c826117cb565b6004600083815260200190815260200160002060009054906101000a900473ffffffffffffffffffffffffffffffffffffffff169050919050565b600061085282610e03565b90508073ffffffffffffffffffffffffffffffffffffffff168373ffffffffffffffffffffffffffffffffffffffff16036108c2576040517f08c379a00000000000000000000000000000000000000000000000000000000081526004016108b9906130a0565b60405180910390fd5b8073ffffffffffffffffffffffffffffffffffffffff166108e1611816565b73ffffffffffffffffffffffffffffffffffffffff161480610910575061090f8161090a611816565b61163f565b5b61094f576040517f08c379a000000000000000000000000000000000000000000000000000000000815260040161094690613132565b60405180910390fd5b610959838361181e565b505050565b61096f610969611816565b826118d7565b6109ae576040517f08c379a00000000000000000000000000000000000000000000000000000000081526004016109a5906131c4565b60405180910390fd5b6109b983838361196c565b505050565b600660009054906101000a900473ffffffffffffffffffffffffffffffffffffffff1673ffffffffffffffffffffffffffffffffffffffff163373ffffffffffffffffffffffffffffffffffffffff1614610a4e576040517f08c379a0000000000000000000000000000000000000000000000000000000008152600401610a4590613230565b60405180910390fd5b6000600660009054906101000a900473ffffffffffffffffffffffffffffffffffffffff1673ffffffffffffffffffffffffffffffffffffffff1647604051610a9690613281565b60006040518083038185875af1925050503d8060008114610ad3576040519150601f19603f3d011682016040523d82523d6000602084013e610ad8565b606091505b5050905080610b1c576040517f08c379a0000000000000000000000000000000000000000000000000000000008152600401610b13906132e2565b60405180910390fd5b50565b610b3a8383836040518060200160405280600081525061107a565b505050565b610b4761252f565b600b600083815260200190815260200160002060405180608001604052908160008201548152602001600182018054610b7f90612ffd565b80601f0160208091040260200160405190810160405280929190818152602001828054610bab90612ffd565b8015610bf85780601f10610bcd57610100808354040283529160200191610bf8565b820191906000526020600020905b815481529060010190602001808311610bdb57829003601f168201915b5050505050815260200160028201548152602001600382018054610c1b90612ffd565b80601f0160208091040260200160405190810160405280929190818152602001828054610c4790612ffd565b8015610c945780601f10610c6957610100808354040283529160200191610c94565b820191906000526020600020905b815481529060010190602001808311610c7757829003601f168201915b5050505050815250509050919050565b610cac612557565b600a60008373ffffffffffffffffffffffffffffffffffffffff1673ffffffffffffffffffffffffffffffffffffffff1681526020019081526020016000206040518060a001604052908160008201548152602001600182015481526020016002820160009054906101000a900473ffffffffffffffffffffffffffffffffffffffff1673ffffffffffffffffffffffffffffffffffffffff1673ffffffffffffffffffffffffffffffffffffffff16815260200160038201548152602001600482018054610d7a90612ffd565b80601f0160208091040260200160405190810160405280929190818152602001828054610da690612ffd565b8015610df35780601f10610dc857610100808354040283529160200191610df3565b820191906000526020600020905b815481529060010190602001808311610dd657829003601f168201915b5050505050815250509050919050565b600080610e0f83611c65565b9050600073ffffffffffffffffffffffffffffffffffffffff168173ffffffffffffffffffffffffffffffffffffffff1603610e80576040517f08c379a0000000000000000000000000000000000000000000000000000000008152600401610e779061334e565b60405180910390fd5b80915050919050565b600e6020528160005260406000208181548110610ea557600080fd5b90600052602060002001600091509150505481565b60008073ffffffffffffffffffffffffffffffffffffffff168273ffffffffffffffffffffffffffffffffffffffff1603610f2a576040517f08c379a0000000000000000000000000000000000000000000000000000000008152600401610f21906133e0565b60405180910390fd5b600360008373ffffffffffffffffffffffffffffffffffffffff1673ffffffffffffffffffffffffffffffffffffffff168152602001908152602001600020549050919050565b600660009054906101000a900473ffffffffffffffffffffffffffffffffffffffff1681565b60075481565b606060018054610fac90612ffd565b80601f0160208091040260200160405190810160405280929190818152602001828054610fd890612ffd565b80156110255780601f10610ffa57610100808354040283529160200191611025565b820191906000526020600020905b81548152906001019060200180831161100857829003601f168201915b5050505050905090565b60085481565b600c6020528160005260406000206020528060005260406000206000915091509054906101000a900460ff1681565b61107661106f611816565b8383611ca2565b5050565b61108b611085611816565b836118d7565b6110ca576040517f08c379a00000000000000000000000000000000000000000000000000000000081526004016110c1906131c4565b60405180910390fd5b6110d684848484611e0e565b50505050565b600660009054906101000a900473ffffffffffffffffffffffffffffffffffffffff1673ffffffffffffffffffffffffffffffffffffffff163373ffffffffffffffffffffffffffffffffffffffff161461116c576040517f08c379a000000000000000000000000000000000000000000000000000000000815260040161116390613230565b60405180910390fd5b6007600081548092919061117f9061342f565b91905055506040518060800160405280600754815260200184815260200183815260200182815250600b600060075481526020019081526020016000206000820151816000015560208201518160010190816111db9190613623565b506040820151816002015560608201518160030190816111fb9190613623565b50905050505050565b606061120f826117cb565b6000611219611e6a565b905060008151116112395760405180602001604052806000815250611264565b8061124384611e81565b604051602001611254929190613731565b6040516020818303038152906040525b915050919050565b6060600e60008381526020019081526020016000208054806020026020016040519081016040528092919081815260200182805480156112cb57602002820191906000526020600020905b8154815260200190600101908083116112b7575b50505050509050919050565b600d6020528160005260406000206020528060005260406000206000915091509054906101000a900473ffffffffffffffffffffffffffffffffffffffff1681565b6000830361135c576040517f08c379a0000000000000000000000000000000000000000000000000000000008152600401611353906137a1565b60405180910390fd5b6007548311156113a1576040517f08c379a00000000000000000000000000000000000000000000000000000000081526004016113989061380d565b60405180910390fd5b600b6000848152602001908152602001600020600201543410156113fa576040517f08c379a00000000000000000000000000000000000000000000000000000000081526004016113f190613879565b60405180910390fd5b6008600081548092919061140d9061342f565b91905055506040518060a0016040528060085481526020018481526020018373ffffffffffffffffffffffffffffffffffffffff168152602001600b600086815260200190815260200160002060020154815260200182815250600a60008473ffffffffffffffffffffffffffffffffffffffff1673ffffffffffffffffffffffffffffffffffffffff168152602001908152602001600020600082015181600001556020820151816001015560408201518160020160006101000a81548173ffffffffffffffffffffffffffffffffffffffff021916908373ffffffffffffffffffffffffffffffffffffffff1602179055506060820151816003015560808201518160040190816115209190613623565b509050506001600c600085815260200190815260200160002060003373ffffffffffffffffffffffffffffffffffffffff1673ffffffffffffffffffffffffffffffffffffffff16815260200190815260200160002060006101000a81548160ff02191690831515021790555033600d60008581526020019081526020016000206000600854815260200190815260200160002060006101000a81548173ffffffffffffffffffffffffffffffffffffffff021916908373ffffffffffffffffffffffffffffffffffffffff160217905550600e6000848152602001908152602001600020600854908060018154018082558091505060019003906000526020600020016000909190919091505561163a33600854611f4f565b505050565b6000600560008473ffffffffffffffffffffffffffffffffffffffff1673ffffffffffffffffffffffffffffffffffffffff16815260200190815260200160002060008373ffffffffffffffffffffffffffffffffffffffff1673ffffffffffffffffffffffffffffffffffffffff16815260200190815260200160002060009054906101000a900460ff16905092915050565b600980546116e090612ffd565b80601f016020809104026020016040519081016040528092919081815260200182805461170c90612ffd565b80156117595780601f1061172e57610100808354040283529160200191611759565b820191906000526020600020905b81548152906001019060200180831161173c57829003601f168201915b505050505081565b60007f01ffc9a7000000000000000000000000000000000000000000000000000000007bffffffffffffffffffffffffffffffffffffffffffffffffffffffff1916827bffffffffffffffffffffffffffffffffffffffffffffffffffffffff1916149050919050565b6117d481611f6d565b611813576040517f08c379a000000000000000000000000000000000000000000000000000000000815260040161180a9061334e565b60405180910390fd5b50565b600033905090565b816004600083815260200190815260200160002060006101000a81548173ffffffffffffffffffffffffffffffffffffffff021916908373ffffffffffffffffffffffffffffffffffffffff160217905550808273ffffffffffffffffffffffffffffffffffffffff1661189183610e03565b73ffffffffffffffffffffffffffffffffffffffff167f8c5be1e5ebec7d5bd14f71427d1e84f3dd0314c0f7b2291e5b200ac8c7c3b92560405160405180910390a45050565b6000806118e383610e03565b90508073ffffffffffffffffffffffffffffffffffffffff168473ffffffffffffffffffffffffffffffffffffffff1614806119255750611924818561163f565b5b8061196357508373ffffffffffffffffffffffffffffffffffffffff1661194b84610801565b73ffffffffffffffffffffffffffffffffffffffff16145b91505092915050565b8273ffffffffffffffffffffffffffffffffffffffff1661198c82610e03565b73ffffffffffffffffffffffffffffffffffffffff16146119e2576040517f08c379a00000000000000000000000000000000000000000000000000000000081526004016119d99061390b565b60405180910390fd5b600073ffffffffffffffffffffffffffffffffffffffff168273ffffffffffffffffffffffffffffffffffffffff1603611a51576040517f08c379a0000000000000000000000000000000000000000000000000000000008152600401611a489061399d565b60405180910390fd5b611a5e8383836001611fae565b8273ffffffffffffffffffffffffffffffffffffffff16611a7e82610e03565b73ffffffffffffffffffffffffffffffffffffffff1614611ad4576040517f08c379a0000000000000000000000000000000000000000000000000000000008152600401611acb9061390b565b60405180910390fd5b6004600082815260200190815260200160002060006101000a81549073ffffffffffffffffffffffffffffffffffffffff02191690556001600360008573ffffffffffffffffffffffffffffffffffffffff1673ffffffffffffffffffffffffffffffffffffffff168152602001908152602001600020600082825403925050819055506001600360008473ffffffffffffffffffffffffffffffffffffffff1673ffffffffffffffffffffffffffffffffffffffff16815260200190815260200160002060008282540192505081905550816002600083815260200190815260200160002060006101000a81548173ffffffffffffffffffffffffffffffffffffffff021916908373ffffffffffffffffffffffffffffffffffffffff160217905550808273ffffffffffffffffffffffffffffffffffffffff168473ffffffffffffffffffffffffffffffffffffffff167fddf252ad1be2c89b69c2b068fc378daa952ba7f163c4a11628f55a4df523b3ef60405160405180910390a4611c608383836001611fb4565b505050565b60006002600083815260200190815260200160002060009054906101000a900473ffffffffffffffffffffffffffffffffffffffff169050919050565b8173ffffffffffffffffffffffffffffffffffffffff168373ffffffffffffffffffffffffffffffffffffffff1603611d10576040517f08c379a0000000000000000000000000000000000000000000000000000000008152600401611d0790613a09565b60405180910390fd5b80600560008573ffffffffffffffffffffffffffffffffffffffff1673ffffffffffffffffffffffffffffffffffffffff16815260200190815260200160002060008473ffffffffffffffffffffffffffffffffffffffff1673ffffffffffffffffffffffffffffffffffffffff16815260200190815260200160002060006101000a81548160ff0219169083151502179055508173ffffffffffffffffffffffffffffffffffffffff168373ffffffffffffffffffffffffffffffffffffffff167f17307eab39ab6107e8899845ad3d59bd9653f200f220920489ca2b5937696c3183604051611e019190612650565b60405180910390a3505050565b611e1984848461196c565b611e2584848484611fba565b611e64576040517f08c379a0000000000000000000000000000000000000000000000000000000008152600401611e5b90613a9b565b60405180910390fd5b50505050565b606060405180602001604052806000815250905090565b606060006001611e9084612141565b01905060008167ffffffffffffffff811115611eaf57611eae612b74565b5b6040519080825280601f01601f191660200182016040528015611ee15781602001600182028036833780820191505090505b509050600082602001820190505b600115611f44578080600190039150507f3031323334353637383961626364656600000000000000000000000000000000600a86061a8153600a8581611f3857611f37613abb565b5b04945060008503611eef575b819350505050919050565b611f69828260405180602001604052806000815250612294565b5050565b60008073ffffffffffffffffffffffffffffffffffffffff16611f8f83611c65565b73ffffffffffffffffffffffffffffffffffffffff1614159050919050565b50505050565b50505050565b6000611fdb8473ffffffffffffffffffffffffffffffffffffffff166122ef565b15612134578373ffffffffffffffffffffffffffffffffffffffff1663150b7a02612004611816565b8786866040518563ffffffff1660e01b81526004016120269493929190613b3f565b6020604051808303816000875af192505050801561206257506040513d601f19601f8201168201806040525081019061205f9190613ba0565b60015b6120e4573d8060008114612092576040519150601f19603f3d011682016040523d82523d6000602084013e612097565b606091505b5060008151036120dc576040517f08c379a00000000000000000000000000000000000000000000000000000000081526004016120d390613a9b565b60405180910390fd5b805181602001fd5b63150b7a0260e01b7bffffffffffffffffffffffffffffffffffffffffffffffffffffffff1916817bffffffffffffffffffffffffffffffffffffffffffffffffffffffff191614915050612139565b600190505b949350505050565b600080600090507a184f03e93ff9f4daa797ed6e38ed64bf6a1f010000000000000000831061219f577a184f03e93ff9f4daa797ed6e38ed64bf6a1f010000000000000000838161219557612194613abb565b5b0492506040810190505b6d04ee2d6d415b85acef810000000083106121dc576d04ee2d6d415b85acef810000000083816121d2576121d1613abb565b5b0492506020810190505b662386f26fc10000831061220b57662386f26fc10000838161220157612200613abb565b5b0492506010810190505b6305f5e1008310612234576305f5e100838161222a57612229613abb565b5b0492506008810190505b612710831061225957612710838161224f5761224e613abb565b5b0492506004810190505b6064831061227c576064838161227257612271613abb565b5b0492506002810190505b600a831061228b576001810190505b80915050919050565b61229e8383612312565b6122ab6000848484611fba565b6122ea576040517f08c379a00000000000000000000000000000000000000000000000000000000081526004016122e190613a9b565b60405180910390fd5b505050565b6000808273ffffffffffffffffffffffffffffffffffffffff163b119050919050565b600073ffffffffffffffffffffffffffffffffffffffff168273ffffffffffffffffffffffffffffffffffffffff1603612381576040517f08c379a000000000000000000000000000000000000000000000000000000000815260040161237890613c19565b60405180910390fd5b61238a81611f6d565b156123ca576040517f08c379a00000000000000000000000000000000000000000000000000000000081526004016123c190613c85565b60405180910390fd5b6123d8600083836001611fae565b6123e181611f6d565b15612421576040517f08c379a000000000000000000000000000000000000000000000000000000000815260040161241890613c85565b60405180910390fd5b6001600360008473ffffffffffffffffffffffffffffffffffffffff1673ffffffffffffffffffffffffffffffffffffffff16815260200190815260200160002060008282540192505081905550816002600083815260200190815260200160002060006101000a81548173ffffffffffffffffffffffffffffffffffffffff021916908373ffffffffffffffffffffffffffffffffffffffff160217905550808273ffffffffffffffffffffffffffffffffffffffff16600073ffffffffffffffffffffffffffffffffffffffff167fddf252ad1be2c89b69c2b068fc378daa952ba7f163c4a11628f55a4df523b3ef60405160405180910390a461252b600083836001611fb4565b5050565b6040518060800160405280600081526020016060815260200160008152602001606081525090565b6040518060a001604052806000815260200160008152602001600073ffffffffffffffffffffffffffffffffffffffff16815260200160008152602001606081525090565b6000604051905090565b600080fd5b600080fd5b60007fffffffff0000000000000000000000000000000000000000000000000000000082169050919050565b6125e5816125b0565b81146125f057600080fd5b50565b600081359050612602816125dc565b92915050565b60006020828403121561261e5761261d6125a6565b5b600061262c848285016125f3565b91505092915050565b60008115159050919050565b61264a81612635565b82525050565b60006020820190506126656000830184612641565b92915050565b600081519050919050565b600082825260208201905092915050565b60005b838110156126a557808201518184015260208101905061268a565b60008484015250505050565b6000601f19601f8301169050919050565b60006126cd8261266b565b6126d78185612676565b93506126e7818560208601612687565b6126f0816126b1565b840191505092915050565b6000602082019050818103600083015261271581846126c2565b905092915050565b6000819050919050565b6127308161271d565b811461273b57600080fd5b50565b60008135905061274d81612727565b92915050565b600060208284031215612769576127686125a6565b5b60006127778482850161273e565b91505092915050565b600073ffffffffffffffffffffffffffffffffffffffff82169050919050565b60006127ab82612780565b9050919050565b6127bb816127a0565b82525050565b60006020820190506127d660008301846127b2565b92915050565b6127e5816127a0565b81146127f057600080fd5b50565b600081359050612802816127dc565b92915050565b6000806040838503121561281f5761281e6125a6565b5b600061282d858286016127f3565b925050602061283e8582860161273e565b9150509250929050565b600080600060608486031215612861576128606125a6565b5b600061286f868287016127f3565b9350506020612880868287016127f3565b92505060406128918682870161273e565b9150509250925092565b6128a48161271d565b82525050565b600082825260208201905092915050565b60006128c68261266b565b6128d081856128aa565b93506128e0818560208601612687565b6128e9816126b1565b840191505092915050565b600060808301600083015161290c600086018261289b565b506020830151848203602086015261292482826128bb565b9150506040830151612939604086018261289b565b506060830151848203606086015261295182826128bb565b9150508091505092915050565b6000602082019050818103600083015261297881846128f4565b905092915050565b600060208284031215612996576129956125a6565b5b60006129a4848285016127f3565b91505092915050565b6129b6816127a0565b82525050565b600060a0830160008301516129d4600086018261289b565b5060208301516129e7602086018261289b565b5060408301516129fa60408601826129ad565b506060830151612a0d606086018261289b565b5060808301518482036080860152612a2582826128bb565b9150508091505092915050565b60006020820190508181036000830152612a4c81846129bc565b905092915050565b60008060408385031215612a6b57612a6a6125a6565b5b6000612a798582860161273e565b9250506020612a8a8582860161273e565b9150509250929050565b612a9d8161271d565b82525050565b6000602082019050612ab86000830184612a94565b92915050565b60008060408385031215612ad557612ad46125a6565b5b6000612ae38582860161273e565b9250506020612af4858286016127f3565b9150509250929050565b612b0781612635565b8114612b1257600080fd5b50565b600081359050612b2481612afe565b92915050565b60008060408385031215612b4157612b406125a6565b5b6000612b4f858286016127f3565b9250506020612b6085828601612b15565b9150509250929050565b600080fd5b600080fd5b7f4e487b7100000000000000000000000000000000000000000000000000000000600052604160045260246000fd5b612bac826126b1565b810181811067ffffffffffffffff82111715612bcb57612bca612b74565b5b80604052505050565b6000612bde61259c565b9050612bea8282612ba3565b919050565b600067ffffffffffffffff821115612c0a57612c09612b74565b5b612c13826126b1565b9050602081019050919050565b82818337600083830152505050565b6000612c42612c3d84612bef565b612bd4565b905082815260208101848484011115612c5e57612c5d612b6f565b5b612c69848285612c20565b509392505050565b600082601f830112612c8657612c85612b6a565b5b8135612c96848260208601612c2f565b91505092915050565b60008060008060808587031215612cb957612cb86125a6565b5b6000612cc7878288016127f3565b9450506020612cd8878288016127f3565b9350506040612ce98782880161273e565b925050606085013567ffffffffffffffff811115612d0a57612d096125ab565b5b612d1687828801612c71565b91505092959194509250565b600067ffffffffffffffff821115612d3d57612d3c612b74565b5b612d46826126b1565b9050602081019050919050565b6000612d66612d6184612d22565b612bd4565b905082815260208101848484011115612d8257612d81612b6f565b5b612d8d848285612c20565b509392505050565b600082601f830112612daa57612da9612b6a565b5b8135612dba848260208601612d53565b91505092915050565b600080600060608486031215612ddc57612ddb6125a6565b5b600084013567ffffffffffffffff811115612dfa57612df96125ab565b5b612e0686828701612d95565b9350506020612e178682870161273e565b925050604084013567ffffffffffffffff811115612e3857612e376125ab565b5b612e4486828701612d95565b9150509250925092565b600081519050919050565b600082825260208201905092915050565b6000819050602082019050919050565b6000612e86838361289b565b60208301905092915050565b6000602082019050919050565b6000612eaa82612e4e565b612eb48185612e59565b9350612ebf83612e6a565b8060005b83811015612ef0578151612ed78882612e7a565b9750612ee283612e92565b925050600181019050612ec3565b5085935050505092915050565b60006020820190508181036000830152612f178184612e9f565b905092915050565b600080600060608486031215612f3857612f376125a6565b5b6000612f468682870161273e565b9350506020612f57868287016127f3565b925050604084013567ffffffffffffffff811115612f7857612f776125ab565b5b612f8486828701612d95565b9150509250925092565b60008060408385031215612fa557612fa46125a6565b5b6000612fb3858286016127f3565b9250506020612fc4858286016127f3565b9150509250929050565b7f4e487b7100000000000000000000000000000000000000000000000000000000600052602260045260246000fd5b6000600282049050600182168061301557607f821691505b60208210810361302857613027612fce565b5b50919050565b7f4552433732313a20617070726f76616c20746f2063757272656e74206f776e6560008201527f7200000000000000000000000000000000000000000000000000000000000000602082015250565b600061308a602183612676565b91506130958261302e565b604082019050919050565b600060208201905081810360008301526130b98161307d565b9050919050565b7f4552433732313a20617070726f76652063616c6c6572206973206e6f7420746f60008201527f6b656e206f776e6572206f7220617070726f76656420666f7220616c6c000000602082015250565b600061311c603d83612676565b9150613127826130c0565b604082019050919050565b6000602082019050818103600083015261314b8161310f565b9050919050565b7f4552433732313a2063616c6c6572206973206e6f7420746f6b656e206f776e6560008201527f72206f7220617070726f76656400000000000000000000000000000000000000602082015250565b60006131ae602d83612676565b91506131b982613152565b604082019050919050565b600060208201905081810360008301526131dd816131a1565b9050919050565b7f4f6e6c79204f776e65722063616e2063616c6c20746869730000000000000000600082015250565b600061321a601883612676565b9150613225826131e4565b602082019050919050565b600060208201905081810360008301526132498161320d565b9050919050565b600081905092915050565b50565b600061326b600083613250565b91506132768261325b565b600082019050919050565b600061328c8261325e565b9150819050919050565b7f5769746864726177616c206661696c6564000000000000000000000000000000600082015250565b60006132cc601183612676565b91506132d782613296565b602082019050919050565b600060208201905081810360008301526132fb816132bf565b9050919050565b7f4552433732313a20696e76616c696420746f6b656e2049440000000000000000600082015250565b6000613338601883612676565b915061334382613302565b602082019050919050565b600060208201905081810360008301526133678161332b565b9050919050565b7f4552433732313a2061646472657373207a65726f206973206e6f74206120766160008201527f6c6964206f776e65720000000000000000000000000000000000000000000000602082015250565b60006133ca602983612676565b91506133d58261336e565b604082019050919050565b600060208201905081810360008301526133f9816133bd565b9050919050565b7f4e487b7100000000000000000000000000000000000000000000000000000000600052601160045260246000fd5b600061343a8261271d565b91507fffffffffffffffffffffffffffffffffffffffffffffffffffffffffffffffff820361346c5761346b613400565b5b600182019050919050565b60008190508160005260206000209050919050565b60006020601f8301049050919050565b600082821b905092915050565b6000600883026134d97fffffffffffffffffffffffffffffffffffffffffffffffffffffffffffffffff8261349c565b6134e3868361349c565b95508019841693508086168417925050509392505050565b6000819050919050565b600061352061351b6135168461271d565b6134fb565b61271d565b9050919050565b6000819050919050565b61353a83613505565b61354e61354682613527565b8484546134a9565b825550505050565b600090565b613563613556565b61356e818484613531565b505050565b5b818110156135925761358760008261355b565b600181019050613574565b5050565b601f8211156135d7576135a881613477565b6135b18461348c565b810160208510156135c0578190505b6135d46135cc8561348c565b830182613573565b50505b505050565b600082821c905092915050565b60006135fa600019846008026135dc565b1980831691505092915050565b600061361383836135e9565b9150826002028217905092915050565b61362c8261266b565b67ffffffffffffffff81111561364557613644612b74565b5b61364f8254612ffd565b61365a828285613596565b600060209050601f83116001811461368d576000841561367b578287015190505b6136858582613607565b8655506136ed565b601f19841661369b86613477565b60005b828110156136c35784890151825560018201915060208501945060208101905061369e565b868310156136e057848901516136dc601f8916826135e9565b8355505b6001600288020188555050505b505050505050565b600081905092915050565b600061370b8261266b565b61371581856136f5565b9350613725818560208601612687565b80840191505092915050565b600061373d8285613700565b91506137498284613700565b91508190509392505050565b7f4d656d626572736869702049442063616e6e6f74206265207a65726f00000000600082015250565b600061378b601c83612676565b915061379682613755565b602082019050919050565b600060208201905081810360008301526137ba8161377e565b9050919050565b7f496e76616c6964206d656d626572736869702049440000000000000000000000600082015250565b60006137f7601583612676565b9150613802826137c1565b602082019050919050565b60006020820190508181036000830152613826816137ea565b9050919050565b7f496e73756666696369656e742062616c616e6365000000000000000000000000600082015250565b6000613863601483612676565b915061386e8261382d565b602082019050919050565b6000602082019050818103600083015261389281613856565b9050919050565b7f4552433732313a207472616e736665722066726f6d20696e636f72726563742060008201527f6f776e6572000000000000000000000000000000000000000000000000000000602082015250565b60006138f5602583612676565b915061390082613899565b604082019050919050565b60006020820190508181036000830152613924816138e8565b9050919050565b7f4552433732313a207472616e7366657220746f20746865207a65726f2061646460008201527f7265737300000000000000000000000000000000000000000000000000000000602082015250565b6000613987602483612676565b91506139928261392b565b604082019050919050565b600060208201905081810360008301526139b68161397a565b9050919050565b7f4552433732313a20617070726f766520746f2063616c6c657200000000000000600082015250565b60006139f3601983612676565b91506139fe826139bd565b602082019050919050565b60006020820190508181036000830152613a22816139e6565b9050919050565b7f4552433732313a207472616e7366657220746f206e6f6e20455243373231526560008201527f63656976657220696d706c656d656e7465720000000000000000000000000000602082015250565b6000613a85603283612676565b9150613a9082613a29565b604082019050919050565b60006020820190508181036000830152613ab481613a78565b9050919050565b7f4e487b7100000000000000000000000000000000000000000000000000000000600052601260045260246000fd5b600081519050919050565b600082825260208201905092915050565b6000613b1182613aea565b613b1b8185613af5565b9350613b2b818560208601612687565b613b34816126b1565b840191505092915050565b6000608082019050613b5460008301876127b2565b613b6160208301866127b2565b613b6e6040830185612a94565b8181036060830152613b808184613b06565b905095945050505050565b600081519050613b9a816125dc565b92915050565b600060208284031215613bb657613bb56125a6565b5b6000613bc484828501613b8b565b91505092915050565b7f4552433732313a206d696e7420746f20746865207a65726f2061646472657373600082015250565b6000613c03602083612676565b9150613c0e82613bcd565b602082019050919050565b60006020820190508181036000830152613c3281613bf6565b9050919050565b7f4552433732313a20746f6b656e20616c7265616479206d696e74656400000000600082015250565b6000613c6f601c83612676565b9150613c7a82613c39565b602082019050919050565b60006020820190508181036000830152613c9e81613c62565b905091905056fea2646970667358221220595939d6b471c9324c442dca14ea8bb15d416efc4c4d4dc9c24164ec2aa1418764736f6c63430008110033",
  "linkReferences": {},
  "deployedLinkReferences": {}
}